:0A0F040000010202030304040505C6
:10054B00E4F52CF52BF52AF529C203C200C202C231
:10055B0001120C207E0B7F008E0A8F0B75120B7510
:10056B00131275080B75091C75100B75114A751450
:10057B000B751578EE54C0700302064C752D007583
:10058B002E808E2F8F30C3749A9FFF740B9ECF24B7
:10059B0002CF3400FEE48F288E27F526F525F524AF
:1005AB00F523F522F521AF28AE27AD26AC25AB24DC
:1005BB00AA23A922A821C3120EE85033E530252423
:1005CB00F582E52F3523F583E0FFE52E2524F58213
:1005DB00E52D3523F583EFF0E5242401F524E435EF
:1005EB0023F523E43522F522E43521F52180B78567
:1005FB002D0A852E0B74002480FF740B34FFFEC371
:10060B00E5139FF513E5129EF512C3E50D9FF50D4E
:10061B00E50C9EF50CC3E50F9FF50FE50E9EF50E51
:10062B00C3E5099FF509E5089EF508C3E5119FF59C
:10063B0011E5109EF510C3E5159FF515E5149EF514
:10064B0014D2E843D82090E668E04409F090E65CC9
:10065B00E0443DF0D2AF90E680E020E105D20412F9
:10066B000DE290E680E054F7F0538EF8C2031208C7
:10067B00FF30010512030CC2013003F2120F21509F
:10068B00EDC2031208DA20001690E682E030E70490
:10069B00E020E1EF90E682E030E604E020E0E412B7
:0706AB000E11120F2380C79E
:0B0EF90090E50DE030E402C322D3229C
:10030C0090E6B9E070030203CB14700302044A2494
:10031C00FE70030204D024FB70030203C5147003A7
:10032C000203BF1470030203B31470030203B92455
:10033C00056003020537120F25400302054390E6C2
:10034C00BBE024FE602714603824FD601114602784
:10035C0024067050E50A90E6B3F0E50B803C120ED3
:10036C00F9503EE51290E6B3F0E513802DE50C90C4
:10037C00E6B3F0E50D8023E50E90E6B3F0E50F80D3
:10038C001990E6BAE0FF120E3DAA06A9077B01EA16
:10039C00494B600DEE90E6B3F0EF90E6B4F0020539
:1003AC0043020532020532120ED6020543120F0E1D
:1003BC00020543120AF8020543120EC40205431249
:1003CC000F27400302054390E6B8E0247F60151424
:1003DC00601924027065A200E43325E0FFA202E458
:1003EC00334F8043E490E740F0804190E6BCE0D38B
:1003FC009480748094807E0040047F0180027F0092
:10040C0090E6BCE0547EFDEF4D2404F582740F3E63
:10041C00F583E493FF3395E0FEEF24A1FFEE34E681
:10042C008F82F583E0540190E740F0E4A3F090E66E
:10043C008AF090E68B7402F0020543020532120F2B
:10044C0029400302054390E6B8E024FE601724021D
:10045C00600302054390E6BAE064017005C2000235
:10046C00054302053290E6BAE0705790E6BCE0D343
:10047C009480748094807E0040047F0180027F0011
:10048C0090E6BCE0547EFDEF4D2404F582740F3EE3
:10049C00F583E493FF3395E0FEEF24A1FFEE34E601
:1004AC008F82F583E054FEF090E6BCE05480131389
:1004BC0013541FFFE0540F2F90E683F0E04420F01C
:1004CC0080758062120F2B506E90E6B8E024FE60AF
:1004DC001A2402705190E6BAE064017004D20080D4
:1004EC005690E6BAE06402604E803B90E6BCE0D3E6
:1004FC009480748094807E0040047F0180027F0091
:10050C0090E6BCE0547EFDEF4D2404F582740F3E62
:10051C00F583E493FF3395E0FEEF24A1FFEE34E680
:10052C008F82F583800D90E6A08008120080500722
:0E053C0090E6A0E04401F090E6A0E04480F0DC
:01054A00228E
:03003300020F1D9C
:040F1D0053D8EF3284
:100B00001201000200000040B404041000000102C1
:100B100000010A06000200000040010009022E0048
:100B200001010080320904000004FF0000000705F5
:100B30000202000200070504020002000705860207
:100B40000002000705880200020009022E000101D0
:100B50000080320904000004FF00000007050202C3
:100B6000400000070504024000000705860240001F
:100B70000007058802400000040309041003430035
:100B80007900700072006500730073000E03450069
:0C0B90005A002D005500530042000000E8
:03004300020900AF
:030053000209009F
:10090000020E6800020EAE00020E9800020E800079
:10091000020DAC00020D6F00020F2D00020F2E0021
:10092000020F2F00020F3000020F3100020F3200C1
:10093000020F3300020F3400020F3500020F3600A1
:10094000020F3700020F2E00020F3800020F39008D
:10095000020F3A00020F3B00020F3C00020F3D0065
:10096000020F3E00020F2E00020F2E00020F2E007B
:10097000020F3F00020F4000020F4100020F420031
:10098000020F4300020F4400020F4500020F460011
:10099000020F4700020F4800020F4900020F4A00F1
:1009A000020F4B00020F4C00020F4D00020F4E00D1
:0809B000020F4F00020F50007E
:100E110090E682E030E004E020E60B90E682E030EC
:100E2100E119E030E71590E680E04401F07F147E9F
:0C0E310000120CE790E680E054FEF02276
:100DE20030040990E680E0440AF0800790E680E053
:100DF2004408F07FDC7E05120CE790E65D74FFF09C
:0F0E020090E65FF05391EF90E680E054F7F02216
:020E3D00A90703
:100E3F00AE14AF158F828E83A3E064037017AD01DC
:100E4F0019ED7001228F828E83E07C002FFDEC3E26
:080E5F00FEAF0580DFE4FEFF99
:010E67002268
:1008DA0090E682E044C0F090E681F0438701000090
:0408EA0000000022E8
:100CE7008E378F3890E600E054187012E5382401EB
:100CF700FFE43537C313F537EF13F538801590E662
:100D070000E05418FFBF100BE53825E0F538E5374C
:100D170033F537E5381538AE37700215374E6005AD
:060D27001208EE80EE222E
:1008EE007400F58690FDA57C05A3E582458370F91D
:0108FE0022D7
:060F16000118A2011902FE
:100B9C00E4F51CF51DF51EF51F90E678E020E6F94E
:100BAC00E04480F090E67974A2F090E678E030E0D2
:100BBC00F9E490E679F090E678E030E0F990E679A7
:100BCC007403F090E678E030E0F990E678E020E607
:100BDC00F9E04480F090E67974A3F090E678E03088
:100BEC00E0F990E679E0FD7C0090E678E030E0F901
:100BFC00E04420F090E679E07C00FD90E678E0306F
:100C0C00E0F9E04440F090E679E0FEE42DFDEE3CA6
:030C1C00FEAF0523
:010C1F0022B2
:100C200090E600E054E74410F090E6017480F04351
:100C3000AF0190E6097403F000000090E60BF000AD
:100C4000000090E61274A2F090E61474E2F0000046
:100C50000090E6047480F00000007402F0000000D0
:100C60007406F0000000E4F000000090E649748291
:100C7000F0000000F000000090E6187410F090E61C
:050C80001A740CF022C3
:0108FF0022D6
:020F2100D322D9
:020F2300D322D7
:020F2500D322D5
:080AF80090E6BAE0F51AD322E2
:100EC40090E740E51AF0E490E68AF090E68B04F0AF
:020ED400D32227
:080F0E0090E6BAE0F516D322CB
:100ED60090E740E516F0E490E68AF090E68B04F0A1
:020EE600D32215
:020F2700D322D3
:020F2900D322D1
:020F2B00D322CF
:100080007AE779407EE77535E775364090E678E0A7
:100090005410FFC4540F4450F51813E433F51B906B
:1000A000E6B9E0245FB40D00400302030A9000BBF0
:1000B00075F003A4C58325F0C583730202500202C4
:1000C000500202B70201120200E20200E90200F54A
:1000D00002013602018602011B02012302015C02B9
:1000E000010790E740E51B801190E600E0C4540F43
:1000F00090E740800590E740740FF0E490E68AF0C6
:1001000090E68B040201E690E6BAE090E601F00288
:10011000030A90E6BAE0F51802030A90E67AE05482
:10012000FE800690E67AE04401F0E490E68AF090E2
:10013000E68BF002030A90E7407407F0E490E68A49
:10014000F090E68B04F090E6A0E04480F07FE87E3B
:1001500003120CE7D204120DE202030A90E6B5E0A6
:1001600054FEF090E6BFE090E68AF090E6BEE090A4
:10017000E68BF090E6BBE090E6B3F090E6BAE09054
:10018000E6B4F002030A90E6B8E064C0705F90E65F
:10019000BCE014601914602214602B146034240431
:1001A000703A90E740E580F0A3E5B2F0802E90E74A
:1001B00040E590F0A3E5B3F0802290E740E5A0F0A1
:1001C000A3E5B4F0801690E740E5B0F0A3E5B5F004
:1001D000800A90E740E5B1F0A3E5B6F0E490E68A46
:1001E000F090E68B7402F090E6A00202EB90E6B885
:1001F000E06440600302030A90E6BCE014601D1452
:10020000602714603114603B2404600302030A90E9
:10021000E6BAE0F580A3E0F5B202030A90E6BAE0A0
:10022000F590A3E0F5B302030A90E6BAE0F5A0A3C7
:10023000E0F5B402030A90E6BAE0F5B0A3E0F5B544
:1002400002030A90E6BAE0F5B1A3E0F5B602030AAC
:1002500090E6BAE0753100F532A3E0FEEE4231A33C
:10026000E0F518A3E05403F519E013135401F51752
:10027000A3E0753300F534A3E0FEEE4233E53445E8
:1002800033700302030A90E6B8E064C0701490E68D
:10029000A0E020E1F9AD34AC33AF32AE3112081535
:1002A000806890E6B8E064407060AD34AC33AF3243
:1002B000AE311209B8805390E6BEE0753300F534D4
:1002C000A3E0FEEE423390E6BCE014601714602118
:1002D00014602724FE602C14703090E6BAE0FF1200
:1002E0000D2D802690E678E020E6F9E04480F0804D
:1002F0001990E678E04440F08010AF34AE33120C31
:0B030000858007AF34AE331206B2C395
:01030B0022CF
:100D2D00AD0790E678E020E6F9E04480F0ED25E0AF
:100D3D0090E679F090E678E030E0F9E04440F0900C
:100D4D00E678E020E6F990E6A0E020E1F990E6787B
:100D5D00E0540290E740F0E490E68AF090E68B04D0
:020D6D00F02272
:040C85008E3F8F40CF
:100C89007EE77F40E540453F6053E490E68AF09077
:100C9900E68BF090E6A0E020E1F990E68BE0754163
:100CA90000F542E4FDFCC3ED9542EC9541501F8FE0
:100CB900828E83EF2DF582EE3CF583E090E679F0A4
:100CC90090E678E030E0F90DBD00010C80D8C3E56D
:0D0CD900409542F540E53F9541F53F80A76D
:010CE60022EB
:0406B2008E418F42A4
:1006B6007AE77B40E54264014541700790E678E0C1
:1006C6004420F090E679E08B828A83F090E678E029
:1006D60030E0F9E5424541700302081490E6A0E0D7
:1006E60020E1F9C3E5429440E54194005008854174
:1006F600438542448006754300754440E5446440A2
:1007060045437052D3E5429440E54194004047E4A6
:10071600F545F546C3E5469544E54595435026908F
:10072600E678E030E0F990E679E0FF8B828A83EBA9
:100736002546F582EA3545F583EFF00546E5467030
:10074600D3054580CFE490E68AF090E68BE544F049
:10075600C3E54202080790E678E030E0F9D3E542C7
:100766009401E54194004069E4F545F546E54224E7
:10077600FEFFE54134FFFEC3E5469FE5459E502654
:1007860090E679E0FF8B828A83EB2546F582EA358F
:1007960045F583EFF090E678E030E0F90546E5466A
:1007A60070CB054580C790E678E04420F090E67966
:1007B600E0FFE54224FEFDE54134FFFC8B828A839F
:1007C600EB2DF582EA3CF583EFF090E678E030E039
:1007D600F990E678E04440F090E679E0FFE54224BF
:1007E600FFFDE54134FFFC8B828A83EB2DF582EA1F
:1007F6003CF583EFF0E490E68AF090E68BE542F074
:0E080600C39544F542E5419543F5410206D9FC
:0108140022C1
:080815008E378F388C398D3AC3
:10081D00E4F53BF53CF53DF53E7AE77940753FE76C
:10082D00754040D3E5199401748094804019E537E3
:10083D00FF053CE53CAC3B7002053B142400F58202
:10084D0074103CF583EFF0053CE53CAC3B700205C4
:10085D003B142400F58274103CF583E538F090E6E6
:10086D0078E020E6F9E04480F0E51825E090E6799F
:10087D00F090E678E030E0F9E4F53BF53CC3E53C7B
:10088D009519E53B940050227400253CF5827410B7
:10089D00353BF583E090E679F090E678E030E0F9CD
:1008AD00053CE53C70D7053B80D390E678E020E62B
:1008BD00F9E04480F0E51825E0440190E679F090E8
:0D08CD00E678E030E0F9AF3AAE390206B24D
:0809B8008E378F388C398D3A1F
:1009C000E4F53BF53C7AE77940753DE7753E40D369
:1009D000E5199401748094804019E537FF053CE5E2
:1009E0003CAC3B7002053B142400F58274103CF5CE
:1009F00083EFF0053CE53CAC3B7002053B14240062
:100A0000F58274103CF583E538F090E678E020E656
:100A1000F9E04480F0E51825E090E679F090E6787A
:100A2000E030E0F9E4F53BF53CC3E53C9519E53BE6
:100A3000940050227400253CF5827410353BF583F8
:100A4000E090E679F090E678E030E0F9053CE53CAE
:100A500070D7053B80D3AF3AAE39120C8590E6785B
:0B0A6000E04440F090E678E020E6F96A
:010A6B002268
:100E6800C0E0C083C082D2015391EF90E65D740167
:080E7800F0D082D083D0E032FB
:100E9800C0E0C083C0825391EF90E65D7404F0D047
:060EA80082D083D0E0328D
:100EAE00C0E0C083C0825391EF90E65D7402F0D033
:060EBE0082D083D0E03277
:100DAC00C0E0C083C08285100C85110D850D828535
:100DBC000C83A37402F085080E85090F850F8285BC
:100DCC000E83A37407F05391EF90E65D7410F0D08E
:060DDC0082D083D0E0325A
:100E8000C0E0C083C082D2035391EF90E65D740846
:080E9000F0D082D083D0E032E3
:100D6F00C0E0C083C08290E680E030E72085080CA9
:100D7F0085090D850D82850C83A37402F085100EF5
:100D8F0085110F850F82850E83A37407F05391EFA2
:0D0D9F0090E65D7420F0D082D083D0E03269
:010F2D003291
:010F2E003290
:010F2F00328F
:010F3000328E
:010F3100328D
:010F3200328C
:010F3300328B
:010F3400328A
:010F35003289
:010F36003288
:010F37003287
:010F38003286
:010F39003285
:010F3A003284
:010F3B003283
:010F3C003282
:010F3D003281
:010F3E003280
:010F3F00327F
:010F4000327E
:010F4100327D
:010F4200327C
:010F4300327B
:010F4400327A
:010F45003279
:010F46003278
:010F47003277
:010F48003276
:010F49003275
:010F4A003274
:010F4B003273
:010F4C003272
:010F4D003271
:010F4E003270
:010F4F00326F
:010F5000326E
:03000000020A6C85
:0C0A6C00787FE4F6D8FD758146020AB3DD
:100EE800EB9FF5F0EA9E42F0E99D42F0E89C45F060
:010EF80022D7
:100A780002054BE493A3F8E493A34003F68001F244
:100A880008DFF48029E493A3F85407240CC8C3337F
:100A9800C4540F4420C8834004F456800146F6DF4E
:100AA800E4800B0102040810204080900F16E47EB9
:100AB800019360BCA3FF543F30E509541FFEE49343
:100AC800A360010ECF54C025E060A840B8E493A30A
:100AD800FAE493A3F8E493A3C8C582C8CAC583CA35
:100AE800F0A3C8C582C8CAC583CADFE9DEE780BEED
:010F1C0000D4
:00000001FF
