:0A0F3B00000102020303040405058F
:10054600E4F52CF52BF52AF529C203C200C202C236
:1005560001120B9C7E0B7F008E0A8F0B75120B759A
:10056600131275080B75091C75100B75114A751455
:100576000B751578EE54C07003020647752D00758D
:100586002E808E2F8F30C3749A9FFF740B9ECF24BC
:1005960002CF3400FEE48F288E27F526F525F524B4
:1005A600F523F522F521AF28AE27AD26AC25AB24E1
:1005B600AA23A922A821C3120F1F5033E5302524F0
:1005C600F582E52F3523F583E0FFE52E2524F58218
:1005D600E52D3523F583EFF0E5242401F524E435F4
:1005E60023F523E43522F522E43521F52180B7856C
:1005F6002D0A852E0B74002480FF740B34FFFEC376
:10060600E5139FF513E5129EF512C3E50D9FF50D53
:10061600E50C9EF50CC3E50F9FF50FE50E9EF50E56
:10062600C3E5099FF509E5089EF508C3E5119FF5A1
:1006360011E5109EF510C3E5159FF515E5149EF519
:1006460014D2E843D82090E668E04409F090E65CCE
:10065600E0443DF0D2AF90E680E020E105D20412FE
:100666000E1990E680E054F7F0538EF8C203120894
:10067600FF30010512030EC2013003F2120AFA50CE
:10068600EDC2031208D620001690E682E030E70499
:10069600E020E1EF90E682E030E604E020E0E412BC
:0706A6000E48120AFC80C798
:0B0F300090E50DE030E402C322D32264
:10030E0090E6B9E070030203CD14700302044A2490
:10031E00FE70030204CD24FB70030203C7147003A6
:10032E000203C11470030203B51470030203BB244D
:10033E00056003020532120AFE400302053E90E6F6
:10034E00BBE024FE602714603824FD601114602782
:10035E0024067050E50A90E6B3F0E50B803C120FD0
:10036E0030503EE51290E6B3F0E513802DE50C908B
:10037E00E6B3F0E50D8023E50E90E6B3F0E50F80D1
:10038E001990E6BAE0FF120E74AA06A9077B01EADD
:10039E00494B600DEE90E6B3F0EF90E6B4F0020537
:1003AE003E02052D02052D120F0D02053E120F4DB8
:1003BE0002053E120F4502053E120EFB02053E12CD
:1003CE000F5C400302053E90E6B8E0247F601514F2
:1003DE00601924027063A200E43325E0FFA202E458
:1003EE00334F8041E490E740F0803F90E6BCE0540C
:1003FE007EFF7E00E0D394807C0040047D0180026D
:10040E007D00EC4EFEED4F243BF582740F3EF583DE
:10041E00E493FF3395E0FEEF24A1FFEE34E68F82E6
:10042E00F583E0540190E740F0E4A3F090E68AF003
:10043E0090E68B7402F002053E02052D120F5E400F
:10044E000302053E90E6B8E024FE60162402600327
:10045E0002053E90E6BAE0B40105C20002053E0276
:10046E00052D90E6BAE0705590E6BCE0547EFF7E16
:10047E0000E0D394807C0040047D0180027D00EC7E
:10048E004EFEED4F243BF582740F3EF583E493FF51
:10049E003395E0FEEF24A1FFEE34E68F82F583E084
:1004AE0054FEF090E6BCE05480131313541FFFE08B
:1004BE00540F2F90E683F0E04420F080738060129A
:1004CE000F60506C90E6B8E024FE601A2402704F64
:1004DE0090E6BAE0B40104D200805590E6BAE0B4DA
:1004EE000202804C803990E6BCE0547EFF7E00E034
:1004FE00D394807C0040047D0180027D00EC4EFE92
:10050E00ED4F243BF582740F3EF583E493FF339554
:10051E00E0FEEF24A1FFEE34E68F82F583800D908E
:10052E00E6A08008120080500790E6A0E04401F09B
:07053E0090E6A0E04480F00C
:010545002293
:030033000208FBC5
:0408FB0053D8EF32AD
:100B00001201000200000040B404041000000102C1
:100B100000010A06000200000040010009022E0048
:100B200001010080320904000004FF0000000705F5
:100B30000202000200070504020002000705860207
:100B40000002000705880200020009022E000101D0
:100B50000080320904000004FF00000007050202C3
:100B6000400000070504024000000705860240001F
:100B70000007058802400000040309041003430035
:100B80007900700072006500730073000E03450069
:0C0B90005A002D005500530042000000E8
:03004300020900AF
:030053000209009F
:10090000020E9F00020EE500020ECF00020EB7009D
:10091000020DE300020DA600020F6200020F630049
:10092000020F6400020F6500020F6600020F6700ED
:10093000020F6800020F6900020F6A00020F6B00CD
:10094000020F6C00020F6300020F6D00020F6E00B9
:10095000020F6F00020F7000020F7100020F720091
:10096000020F7300020F6300020F6300020F6300A7
:10097000020F7400020F7500020F7600020F77005D
:10098000020F7800020F7900020F7A00020F7B003D
:10099000020F7C00020F7D00020F7E00020F7F001D
:1009A000020F8000020F8100020F8200020F8300FD
:0809B000020F8400020F850014
:100E480090E682E030E004E020E60B90E682E030B5
:100E5800E119E030E71590E680E04401F07F147E68
:0C0E680000120D6090E680E054FEF022C5
:100E190030040990E680E0440AF0800790E680E01B
:100E29004408F07FDC7E05120D6090E65D74FFF0EA
:0F0E390090E65FF05391EF90E680E054F7F022DF
:020E7400A907CC
:100E7600AE14AF158F828E83A3E064037017AD01A5
:100E860019ED7001228F828E83E07C002FFDEC3EEF
:080E9600FEAF0580DFE4FEFF62
:010E9E002231
:1008D60090E682E044C0F090E681F0438701000094
:0408E60000000022EC
:100D60008E378F3890E600E054187012E538240171
:100D7000FFE43537C313F537EF13F538801590E6E8
:100D800000E05418FFBF100BE53825E0F538E537D3
:100D900033F537E5381538AE37700215374E600534
:060DA0001208EA80EE22B9
:1008EA007400F58690FDA57C05A3E582458370F921
:0108FA0022DB
:060F55000118A2011902BF
:100A6A00E4F533F534F535F53690E678E020E6F925
:100A7A0090E678E04480F090E67974A2F090E67807
:100A8A00E030E0F9E490E679F090E678E030E0F9D9
:100A9A0090E6797403F090E678E030E0F990E67831
:100AAA00E020E6F990E678E04480F090E67974A3D5
:100ABA00F090E678E030E0F990E679E0FD7C00908D
:100ACA00E678E030E0F990E678E04420F090E679C4
:100ADA00E07C00FD90E678E030E0F990E678E044CA
:0F0AEA0040F090E679E0FEE42DFDEE3CFEAF0516
:010AF90022DA
:100B9C0075310B753200120A6AEF2410FDE5322410
:100BAC000AF582E43531F583EDF0AF06E532240B1E
:100BBC00F582E43531F583EFF090E600E054E7443C
:100BCC0010F090E6017480F043AF0190E6097403D5
:100BDC00F000000090E60BF000000090E61274A20A
:100BEC00F090E61474E2F000000090E6047480F0DB
:100BFC000000007402F00000007406F0000000E435
:100C0C00F000000090E6497482F0000000F0000053
:0D0C1C000090E6187410F090E61A740CF0C9
:010C290022A8
:0108FF0022D6
:020AFA00D32205
:020AFC00D32203
:020AFE00D32201
:080F450090E6BAE0F51AD32290
:100EFB0090E740E51AF0E490E68AF090E68B04F078
:020F0B00D322EF
:080F4D0090E6BAE0F516D3228C
:100F0D0090E740E516F0E490E68AF090E68B04F069
:020F1D00D322DD
:020F5C00D3229E
:020F5E00D3229C
:020F6000D3229A
:100080007AE779407EE77535E775364090E678E0A7
:100090005410FFC4540F4450F51813E433F51B906B
:1000A000E6B9E0245FB40D00400302030C9000BBEE
:1000B00075F003A4C58325F0C583730202500202C4
:1000C000500202B60201120200E20200E90200F54B
:1000D00002013602018602011B02012302015C02B9
:1000E000010790E740E51B801190E600E0C4540F43
:1000F00090E740800590E740740FF0E490E68AF0C6
:1001000090E68B040201E690E6BAE090E601F00288
:10011000030C90E6BAE0F51802030C90E67AE0547E
:10012000FE800690E67AE04401F0E490E68AF090E2
:10013000E68BF002030C90E7407407F0E490E68A47
:10014000F090E68B04F090E6A0E04480F07FE87E3B
:1001500003120D60D204120E1902030C90E6B5E0F2
:1001600054FEF090E6BFE090E68AF090E6BEE090A4
:10017000E68BF090E6BBE090E6B3F090E6BAE09054
:10018000E6B4F002030C90E6B8E064C0705F90E65D
:10019000BCE014601914602214602B146034240431
:1001A000703A90E740E580F0A3E5B2F0802E90E74A
:1001B00040E590F0A3E5B3F0802290E740E5A0F0A1
:1001C000A3E5B4F0801690E740E5B0F0A3E5B5F004
:1001D000800A90E740E5B1F0A3E5B6F0E490E68A46
:1001E000F090E68B7402F090E6A00202ED90E6B883
:1001F000E06440600302030C90E6BCE014601D1450
:10020000602714603114603B2404600302030C90E7
:10021000E6BAE0F580A3E0F5B202030C90E6BAE09E
:10022000F590A3E0F5B302030C90E6BAE0F5A0A3C5
:10023000E0F5B402030C90E6BAE0F5B0A3E0F5B542
:1002400002030C90E6BAE0F5B1A3E0F5B602030CA8
:1002500090E6BAE0753100F532A3E0FEEE4231A33C
:10026000E0F518A3E05403F519E013135401F51752
:10027000A3E0753300F534A3E0FEEE4233E53445E8
:1002800033700302030C90E6B8E0B4C01490E6A00B
:10029000E020E1F9AD34AC33AF32AE31120810805A
:1002A0006B90E6B8E064407063AD34AC33AF32AE0F
:1002B000311209B8805690E6BEE0753300F534A3DC
:1002C000E0FEEE423390E6BCE014601714602414A4
:1002D000602A24FE602F14703390E6BAE0FF120DFE
:1002E00018802990E678E020E6F990E678E04480EE
:1002F000F0801990E678E04440F08010AF34AE33DF
:0D030000120CB68007AF34AE331206ADC349
:01030D0022CD
:100D1800AD0790E678E020E6F990E678E04480F0C8
:100D2800ED25E090E679F090E678E030E0F990E69D
:100D380078E04440F090E678E020E6F990E6A0E01C
:100D480020E1F990E678E0540290E740F0E490E67C
:080D58008AF090E68B04F02202
:040CB6008E3F8F409E
:100CBA007EE77F40E540453F6053E490E68AF09046
:100CCA00E68BF090E6A0E020E1F990E68BE0754132
:100CDA0000F542E4FDFCC3ED9542EC9541501F8FAF
:100CEA00828E83EF2DF582EE3CF583E090E679F073
:100CFA0090E678E030E0F90DBD00010C80D8C3E53C
:0D0D0A00409542F540E53F9541F53F80A73B
:010D170022B9
:0406AD008E418F42A9
:1006B1007AE77B40E54264014541700790E678E0C6
:1006C1004420F090E679E08B828A83F090E678E02E
:1006D10030E0F9E5424541700302080F90E6A0E0E1
:1006E10020E1F9C3E5429440E54194005008854179
:1006F100438542448006754300754440E5446440A7
:1007010045437052D3E5429440E54194004047E4AB
:10071100F545F546C3E5469544E545954350269094
:10072100E678E030E0F990E679E0FF8B828A83EBAE
:100731002546F582EA3545F583EFF00546E5467035
:10074100D3054580CFE490E68AF090E68BE544F04E
:10075100C3E54202080290E678E030E0F9D3E542D1
:100761009401E54194004069E4F545F546E54224EC
:10077100FEFFE54134FFFEC3E5469FE5459E502659
:1007810090E679E0FF8B828A83EB2546F582EA3594
:1007910045F583EFF090E678E030E0F90546E5466F
:1007A10070CB054580C790E678E04420F090E6796B
:1007B100E0FFE54224FEFDE54134FFFC8B828A83A4
:1007C100EB2DF582EA3CF583EFF090E678E030E03E
:1007D100F990E678E04440F090E679E0FFE54224C4
:1007E100FFFDE54134FFFC8B828A83EB2DF582EA24
:1007F1003CF583EFF0E490E68AF090E68BE542F079
:0E080100C39544F542E5419543F5410206D406
:01080F0022C6
:080810008E378F388C398D3AC8
:10081800E4F53BF53CF53DF53E7AE77940753FE771
:10082800754040E519D394014019E537FF053CE5CB
:100838003CAC3B7002053B142400F58274103CF577
:1008480083EFF0053CE53CAC3B7002053B1424000B
:10085800F58274103CF583E538F090E678E020E600
:10086800F990E678E04480F0E51825E090E679F024
:1008780090E678E030E0F9E4F53BF53CC3E53C95DB
:1008880019E53B940050217400253CF582E43410AE
:10089800F583E090E679F090E678E030E0F9053C01
:1008A800E53C70D8053B80D490E678E020E6F990E6
:1008B800E678E04480F0E51825E0440190E679F018
:0E08C80090E678E030E0F9AF3AAE390206ADC6
:0809B8008E378F388C398D3A1F
:1009C000E4F53BF53C7AE77940753DE7753E40E557
:1009D00019D394014019E537FF053CE53CAC3B7069
:1009E00002053B142400F58274103CF583EFF005FA
:1009F0003CE53CAC3B7002053B142400F5827410CE
:100A00003CF583E538F090E678E020E6F990E6786A
:100A1000E04480F0E51825E090E679F090E678E093
:100A200030E0F9E4F53BF53CC3E53C9519E53B9432
:100A30000050217400253CF582E43410F583E090E9
:100A4000E679F090E678E030E0F9053CE53C70D8D6
:100A5000053B80D4AF3AAE39120CB690E678E0444C
:090A600040F090E678E020E6F990
:010A6900226A
:100E9F00C0E0C083C082D2015391EF90E65D740130
:080EAF00F0D082D083D0E032C4
:100ECF00C0E0C083C0825391EF90E65D7404F0D010
:060EDF0082D083D0E03256
:100EE500C0E0C083C0825391EF90E65D7402F0D0FC
:060EF50082D083D0E03240
:100DE300C0E0C083C08285100C85110D850D8285FE
:100DF3000C83A37402F085080E85090F850F828585
:100E03000E83A37407F05391EF90E65D7410F0D056
:060E130082D083D0E03222
:100EB700C0E0C083C082D2035391EF90E65D74080F
:080EC700F0D082D083D0E032AC
:100DA600C0E0C083C08290E680E030E72085080C72
:100DB60085090D850D82850C83A37402F085100EBE
:100DC60085110F850F82850E83A37407F05391EF6B
:0D0DD60090E65D7420F0D082D083D0E03232
:010F6200325C
:010F6300325B
:010F6400325A
:010F65003259
:010F66003258
:010F67003257
:010F68003256
:010F69003255
:010F6A003254
:010F6B003253
:010F6C003252
:010F6D003251
:010F6E003250
:010F6F00324F
:010F7000324E
:010F7100324D
:010F7200324C
:010F7300324B
:010F7400324A
:010F75003249
:010F76003248
:010F77003247
:010F78003246
:010F79003245
:010F7A003244
:010F7B003243
:010F7C003242
:010F7D003241
:010F7E003240
:010F7F00323F
:010F8000323E
:010F8100323D
:010F8200323C
:010F8300323B
:010F8400323A
:010F85003239
:03000000020C2AC5
:0C0C2A00787FE4F6D8FD758146020C715D
:100F1F00EB9FF5F0EA9E42F0E99D42F0E89C45F028
:010F2F00229F
:100C3600020546E493A3F8E493A34003F68001F289
:100C460008DFF48029E493A3F85407240CC8C333BF
:100C5600C4540F4420C8834004F456800146F6DF8E
:100C6600E4800B0102040810204080900F55E47EBA
:100C7600019360BCA3FF543F30E509541FFEE49383
:100C8600A360010ECF54C025E060A840B8E493A34A
:100C9600FAE493A3F8E493A3C8C582C8CAC583CA75
:100CA600F0A3C8C582C8CAC583CADFE9DEE780BE2D
:010F5B000095
:00000001FF
