:0A06F40000010202030304040505DF
:100B2700EC4EFEED4F24F4F58274063EF583E49314
:100B3700FF3395E0FEEF24A1FFEE34E68F82F583C5
:100B47002290E6BCE0547EFF7E00E0D394807C00D8
:100B570022F0E5242401F524E43523F523E43522A6
:100B6700F522E43521F52122AF28AE27AD26AC25A5
:100B7700AB24AA23A922A821C3020DEEE52E252422
:090B8700F582E52D3523F58322EA
:1004A600E4F52CF52BF52AF529C203C200C202C2D7
:1004B60001120D997E0A7F298E0A8F0B75120A7515
:1004C600133B75080A75094575100A75116575148B
:1004D6000A751585EE54E07003020592752D0075B8
:1004E6002E808E2F8F30C374AF9FFF740A9ECF2449
:1004F60002CF3400FEE48F288E27F526F525F52455
:10050600F523F522F521120B6F500A120B8374CDD9
:10051600120B5880F1E4F524F523F522F521120B90
:100526006F5017E5302524F582E52F3523F583E056
:10053600FF120B83EF120B5880E4852D0A852E0BD4
:1005460074292480FF740A34FFFEC3E5139FF51354
:10055600E5129EF512C3E50D9FF50DE50C9EF50C13
:10056600C3E50F9FF50FE50E9EF50EC3E5099FF552
:1005760009E5089EF508C3E5119FF511E5109EF5FE
:1005860010C3E5159FF515E5149EF514D2E843D87A
:100596002090E668E04409F090E65CE0443DF0D245
:1005A600AF90E680E054F7F0538EF8C203300105B1
:1005B6001202FDC201300329120DFF5024C203129C
:1005C6000D1420001690E682E030E704E020E1EF0B
:1005D60090E682E030E604E020E0E4120C92120697
:0605E600FE120CEA80C7C2
:1002FD0090E6B9E070030203AE1470030204022409
:10030D00FE700302045C24FB70030203A814700347
:10031D000203A21460731460762405600302049234
:10032D00120E32400302049E90E6BBE024FE6022D2
:10033D0014603324FD601114602224067048E50A10
:10034D0090E6B3F0E50B8037E51290E6B3F0E513D8
:10035D00802DE50C90E6B3F0E50D8023E50E90E6DB
:10036D00B3F0E50F801990E6BAE0FF120CBEAA06B5
:10037D00A9077B01EA494B600DEE90E6B3F0EF90D3
:10038D00E6B4F002049E020497120E1102049E12AE
:10039D000E2202049E120E1A02049E120E08020470
:1003AD009E120E34400302049E90E6B8E0247F6056
:1003BD00151460192402703AA200E43325E0FFA25F
:1003CD0002E4334F8018E490E740F08016120B489A
:1003DD0040047D0180027D00120B27E0540190E75F
:1003ED0040F0E4A3F090E68AF090E68B7402F00200
:1003FD00049E020497120E36400302049E90E6B846
:10040D00E024FE60162402600302049E90E6BAE02A
:10041D00B40105C20002049E02049790E6BAE07092
:10042D002C120B4840047D0180027D00120B27E049
:10043D0054FEF090E6BCE05480131313541FFFE0FC
:10044D00540F2F90E683F0E04420F08044803B125F
:10045D000E38503D90E6B8E024FE6019240270314C
:10046D0090E6BAE0B40104D200802690E6BAE064CA
:10047D0002601E8015120B4840047D0180027D0034
:10048D00120B278008120080500790E6A0E044016F
:08049D00F090E6A0E04480F0BD
:0104A5002234
:03003300020E2A90
:040E2A0053D8EF3278
:030E2E00011900A7
:1008660090E740F0E490E68AF090E68B2290E678F6
:10087600E04480F02290E679E0FF8B828A83EB25C4
:1008860046F582EA3545F583EFF02290E678E044B6
:1008960040F022FDE54134FFFC8B828A83EB2DF587
:1008A60082EA3CF583EF225391EF90E65D22E075F4
:1008B6003300F534A3E0FEEE42332285080C8509A9
:1008C6000D85100E85110F2285100C85110D8508DA
:1008D6000E85090F2290E678E04420F022F583E0A9
:1008E60090E679F022E51825E090E679F0221424C6
:1008F60000F58274103CF58322142400F5827410EE
:040906003CF5832217
:020AB100AA0792
:100AB300E4F53190E678E020E6F912087390E679E0
:100AC300EAF090E678E030E0F9EB600CEC90E67940
:100AD300F090E678E030E0F9ED90E679F090E67892
:100AE300E030E0F990E678E020E6F9120873EA4492
:100AF3000190E679F090E678E030E0F91208DB90B7
:100B0300E679E0FD90E678E030E0F990E679E0FD03
:100B130090E678E030E0F912089190E678E020E67C
:030B2300F9AF0522
:010B260022AC
:100D9900D20075900175B3017B017D207C007FA293
:0A0DA900120AB1BF550375190122AB
:100CEA00E5196025E4FB7D34FC7F10120AB1EFC4DC
:100CFA00540F24FE600804700A758001800875800C
:090D0A00028003E4F58075B203D8
:010D130022BD
:090DFF00E4F5B2F5B3F5B5D32219
:0206FE00D32205
:020E3200D322C9
:080E1A0090E6BAE0F51BD322BB
:090E0800E51B12086604F0D32278
:080E220090E6BAE0F516D322B8
:090E1100E51612086604F0D32274
:020E3400D322C7
:020E3600D322C5
:020E3800D322C3
:100080007AE779407EE77535E775364090E678E0A7
:100090005410FFC4540F4450F51813E433F51C906A
:1000A000E6B9E0245FB40C0040030202FB9000BB01
:1000B00075F003A4C58325F0C583730202250202EF
:1000C000250202870200FC0200DF0200E70200F4C2
:1000D00002011A02016402010502010D02013A90B7
:1000E000E740E51C0202EF90E600E0C4540F90E701
:1000F000400202EF90E740740F0202EF90E6BAE090
:10010000F5180202FB90E67AE054FE800690E67A4B
:10011000E04401120869F00202FB90E74074071204
:10012000086904F090E6A0E04480F07FE87E0312C6
:100130000BE9D204120C630202FB90E6B5E054FE18
:10014000F090E6BFE090E68AF090E6BEE090E68BA5
:10015000F090E6BBE090E6B3F090E6BAE090E6B44B
:10016000F00202FB90E6B8E064C0705690E6BCE096
:1001700014601914602214602B1460342404703A43
:1001800090E740E580F0A3E5B2F0802E90E740E5EF
:1001900090F0A3E5B3F0802290E740E5A0F0A3E55E
:1001A000B4F0801690E740E5B0F0A3E5B5F0800A22
:1001B00090E740E5B1F0A3E5B6F012086A740202D8
:1001C00002F390E6B8E0644060030202FB90E6BCF4
:1001D000E014601D14602714603114603B24046037
:1001E000030202FB90E6BAE0F580A3E0F5B202025A
:1001F000FB90E6BAE0F590A3E0F5B30202FB90E6CF
:10020000BAE0F5A0A3E0F5B40202FB90E6BAE0F58F
:10021000B0A3E0F5B50202FB90E6BAE0F5B1A3E0C9
:10022000F5B60202FB90E6BAE0753100F532A3E0C4
:10023000FEEE4231A3E0F518A3E05403F51AE013F3
:10024000135401F517A31208B4E5344533700302C3
:1002500002FB90E6B8E0B4C01590E6A0E020E1F91A
:10026000AD34AC33AF32AE311207B80202FB90E6C8
:10027000B8E0644060030202FBAD34AC33AF32AE91
:100280003112090A0202FB90E6BE1208B490E6BCE5
:10029000E014601B14602414602624FE602B24FEEE
:1002A000603004705690E6BAE0FF120C2F804C903C
:1002B000E678E020E6F990E678803C120891803BF1
:1002C000AF34AE33120B908032AF34AE331205EC44
:1002D000802990E6A0E020E1F990E6BAE090E67986
:1002E000F090E678E030E0F990E678E090E74012B0
:0C02F000086904F090E6A0E04480F0C330
:0102FC0022DF
:100C2F00AD0790E678E020E6F9120873ED1208EDB3
:100C3F0090E678E030E0F912089190E678E020E64F
:100C4F00F990E6A0E020E1F990E678E0540212086E
:040C5F006604F02215
:040B90008E3F8F40C5
:100B94007EE77F40E540453F604A12086AF090E6F0
:100BA400A0E020E1F990E68BE0754100F542E4FD18
:100BB400FCC3ED9542EC9541501B8F828E83EF2D43
:100BC400F582EE3C1208E390E678E030E0F90DBDE2
:100BD40000010C80DCC3E5409542F540E53F9541BA
:040BE400F53F80B0A9
:010BE80022EA
:0405EC008E418F426B
:1005F0007AE77B40E5426401454170031208DB90D5
:10060000E679E08B828A83F090E678E030E0F9E5E5
:1006100042454170030206F390E6A0E020E1F9C3F1
:10062000E5429440E54194005008854143854244A9
:100630008006754300754440E54464404543703B83
:10064000D3E5429440E54194004030E4F545F54659
:10065000C3E5469544E5459543501490E678E0306F
:10066000E0F912087B0546E54670E5054580E11294
:10067000086AE544F0C3E5420206E690E678E03019
:10068000E0F9D3E5429401E54194004043E4F545A7
:10069000F546E54224FEFFE54134FFFEC3E5469FF3
:1006A000E5459E501412087B90E678E030E0F905AD
:1006B00046E54670DD054580D91208DB90E679E015
:1006C000FFE54224FE120899F090E678E030E0F968
:1006D00012089190E679E0FFE54224FF1208991292
:1006E0000869E542F0C39544F542E5419543F5417B
:0306F00002060FF0
:0106F30022E4
:0807B8008E378F388C398D3A21
:1007C000E4F53BF53CF53DF53E7AE77940753FE7CA
:1007D000754040E51AD394014012E537FF053CE52A
:1007E0003CAC3B7002053B1208F4EFF0053CE53CE5
:1007F000AC3B7002053B1208F4E538F090E678E077
:1008000020E6F9120873E51AD3940040411208EB70
:1008100090E678E030E0F9E4F53BF53CC3E53C9543
:100820001AE53B9400501D7400253CF582E4341019
:100830001208E390E678E030E0F9053CE53C70DC36
:10084000053B80D890E678E020E6F9120873E518B9
:1008500025E0440190E679F090E678E030E0F9AFE9
:060860003AAE390205EC7E
:08090A008E378F388C398D3ACD
:10091200E4F53BF53C7AE77940753DE7753E40E505
:100922001AD394014012E537FF053CE53CAC3B701D
:1009320002053B1208FFEFF0053CE53CAC3B7002C0
:10094200053B1208FFE538F090E678E020E6F91260
:1009520008731208EB90E678E030E0F9E4F53BF535
:100962003CC3E53C951AE53B9400501D7400253CC0
:10097200F582E434101208E390E678E030E0F905FD
:100982003CE53C70DC053B80D8AF3AAE39120B90A7
:0A09920012089190E678E020E6F9E3
:01099C002238
:100D7D00C0E0C083C08290E6B5E04401F0D201121C
:0C0D8D0008AD7401F0D082D083D0E032B9
:100DC800C0E0C083C0821208AD7404F0D082D08322
:030DD800D0E03236
:100DDB00C0E0C083C0821208AD7402F0D082D08311
:030DEB00D0E03223
:100D3900C0E0C083C08290E680E030E7051208C1B8
:100D490080031208CE1208AD7410F0D082D083D07F
:020D5900E03286
:100DB300C0E0C083C082D2031208AD7408F0D082B1
:050DC300D083D0E032F6
:100D5B00C0E0C083C08290E680E030E7051208C196
:100D6B0080031208CE1208AD7420F0D082D083D04D
:020D7B00E03264
:010E3A003285
:010E3B003284
:010E3C003283
:010E3D003282
:010E3E003281
:010E3F003280
:010E4000327F
:010E4100327E
:010E4200327D
:010E4300327C
:010E4400327B
:010E4500327A
:010E46003279
:010E47003278
:010E48003277
:010E49003276
:010E4A003275
:010E4B003274
:010E4C003273
:010E4D003272
:010E4E003271
:010E4F003270
:010E5000326F
:010E5100326E
:010E5200326D
:010E5300326C
:010E5400326B
:010E5500326A
:010E56003269
:010E57003268
:010E58003267
:010E59003266
:010E5A003265
:010E5B003264
:010E5C003263
:010E5D003262
:100A29001201000200000040B40401160000010296
:100A390000010A060002000000400100090220002E
:100A4900010100A0320904000002FF0000000705AF
:100A590002020002000705860200020009022000C6
:100A6900010100A0320904000002FF00000007058F
:100A79000102400000070581024000000403090447
:100A89001003430079007000720065007300730061
:100A9900160345005A002D0055005300420020005E
:080AA900460058003200000075
:100C920090E682E030E004E020E60B90E682E0306D
:100CA200E119E030E71590E680E04401F07F147E20
:0C0CB20000120BE990E680E054FEF022F6
:100D140090E682E044C0F090E681F0438701000051
:040D240000000022A9
:100C630030040990E680E0440AF0800790E680E0D3
:100C73004408F07FDC7E05120BE990E65D74FFF01B
:0F0C830090E65FF05391EF90E680E054F7F02297
:100BE9008E378F3890E600E054187012E5382401EA
:100BF900FFE43537C313F537EF13F538801590E661
:100C090000E05418FFBF100BE53825E0F538E5374B
:100C190033F537E5381538AE37700215374E6005AC
:060C2900120D2880EE22EE
:020CBE00A90784
:100CC000AE14AF158F828E83A3E064037017AD015D
:100CD00019ED7001228F828E83E07C002FFDEC3EA7
:090CE000FEAF0580DF7E007F00FD
:010CE90022E8
:100D28007400F58690FDA57C05A3E582458370F9DE
:010D38002298
:03004300020700B1
:03005300020700A1
:10070000020D7D00020DDB00020DC800020DB300DA
:10071000020D3900020D5B00020E3A00020E3B0092
:10072000020E3C00020E3D00020E3E00020E3F0093
:10073000020E4000020E4100020E4200020E430073
:10074000020E4400020E3B00020E4500020E46005F
:10075000020E4700020E4800020E4900020E4A0037
:10076000020E4B00020E3B00020E3B00020E3B004D
:10077000020E4C00020E4D00020E4E00020E4F0003
:10078000020E5000020E5100020E5200020E5300E3
:10079000020E5400020E5500020E5600020E5700C3
:1007A000020E5800020E5900020E5A00020E5B00A3
:0807B000020E5C00020E5D0068
:0300000002099D55
:0C099D00787FE4F6D8FD7581460209E47D
:100DEE00EB9FF5F0EA9E42F0E99D42F0E89C45F05B
:010DFE0022D2
:1009A9000204A6E493A3F8E493A34003F68001F2BA
:1009B90008DFF48029E493A3F85407240CC8C3334F
:1009C900C4540F4420C8834004F456800146F6DF1E
:1009D900E4800B0102040810204080900E2EE47E72
:1009E900019360BCA3FF543F30E509541FFEE49313
:1009F900A360010ECF54C025E060A840B8E493A3DA
:100A0900FAE493A3F8E493A3C8C582C8CAC583CA04
:100A1900F0A3C8C582C8CAC583CADFE9DEE780BEBC
:010E310000C0
:00000001FF
